{
  "_format": "hh-sol-artifact-1",
  "contractName": "MusicNFTMarketplace",
  "sourceName": "contracts/MusicNFTMarketplace.sol",
  "abi": [
    {
      "inputs": [
        {
          "internalType": "uint256",
          "name": "_royaltyFee",
          "type": "uint256"
        },
        {
          "internalType": "address",
          "name": "_artist",
          "type": "address"
        },
        {
          "internalType": "uint256[]",
          "name": "_prices",
          "type": "uint256[]"
        }
      ],
      "stateMutability": "payable",
      "type": "constructor"
    },
    {
      "anonymous": false,
      "inputs": [
        {
          "indexed": true,
          "internalType": "address",
          "name": "owner",
          "type": "address"
        },
        {
          "indexed": true,
          "internalType": "address",
          "name": "approved",
          "type": "address"
        },
        {
          "indexed": true,
          "internalType": "uint256",
          "name": "tokenId",
          "type": "uint256"
        }
      ],
      "name": "Approval",
      "type": "event"
    },
    {
      "anonymous": false,
      "inputs": [
        {
          "indexed": true,
          "internalType": "address",
          "name": "owner",
          "type": "address"
        },
        {
          "indexed": true,
          "internalType": "address",
          "name": "operator",
          "type": "address"
        },
        {
          "indexed": false,
          "internalType": "bool",
          "name": "approved",
          "type": "bool"
        }
      ],
      "name": "ApprovalForAll",
      "type": "event"
    },
    {
      "anonymous": false,
      "inputs": [
        {
          "indexed": true,
          "internalType": "uint256",
          "name": "tokenId",
          "type": "uint256"
        },
        {
          "indexed": true,
          "internalType": "address",
          "name": "seller",
          "type": "address"
        },
        {
          "indexed": false,
          "internalType": "address",
          "name": "buyer",
          "type": "address"
        },
        {
          "indexed": false,
          "internalType": "uint256",
          "name": "price",
          "type": "uint256"
        }
      ],
      "name": "MarketItemBought",
      "type": "event"
    },
    {
      "anonymous": false,
      "inputs": [
        {
          "indexed": true,
          "internalType": "uint256",
          "name": "tokenId",
          "type": "uint256"
        },
        {
          "indexed": true,
          "internalType": "address",
          "name": "seller",
          "type": "address"
        },
        {
          "indexed": false,
          "internalType": "uint256",
          "name": "price",
          "type": "uint256"
        }
      ],
      "name": "MarketItemRelisted",
      "type": "event"
    },
    {
      "anonymous": false,
      "inputs": [
        {
          "indexed": true,
          "internalType": "address",
          "name": "previousOwner",
          "type": "address"
        },
        {
          "indexed": true,
          "internalType": "address",
          "name": "newOwner",
          "type": "address"
        }
      ],
      "name": "OwnershipTransferred",
      "type": "event"
    },
    {
      "anonymous": false,
      "inputs": [
        {
          "indexed": true,
          "internalType": "address",
          "name": "from",
          "type": "address"
        },
        {
          "indexed": true,
          "internalType": "address",
          "name": "to",
          "type": "address"
        },
        {
          "indexed": true,
          "internalType": "uint256",
          "name": "tokenId",
          "type": "uint256"
        }
      ],
      "name": "Transfer",
      "type": "event"
    },
    {
      "inputs": [
        {
          "internalType": "address",
          "name": "to",
          "type": "address"
        },
        {
          "internalType": "uint256",
          "name": "tokenId",
          "type": "uint256"
        }
      ],
      "name": "approve",
      "outputs": [],
      "stateMutability": "nonpayable",
      "type": "function"
    },
    {
      "inputs": [],
      "name": "artist",
      "outputs": [
        {
          "internalType": "address",
          "name": "",
          "type": "address"
        }
      ],
      "stateMutability": "view",
      "type": "function"
    },
    {
      "inputs": [
        {
          "internalType": "address",
          "name": "owner",
          "type": "address"
        }
      ],
      "name": "balanceOf",
      "outputs": [
        {
          "internalType": "uint256",
          "name": "",
          "type": "uint256"
        }
      ],
      "stateMutability": "view",
      "type": "function"
    },
    {
      "inputs": [],
      "name": "baseExtension",
      "outputs": [
        {
          "internalType": "string",
          "name": "",
          "type": "string"
        }
      ],
      "stateMutability": "view",
      "type": "function"
    },
    {
      "inputs": [],
      "name": "baseURI",
      "outputs": [
        {
          "internalType": "string",
          "name": "",
          "type": "string"
        }
      ],
      "stateMutability": "view",
      "type": "function"
    },
    {
      "inputs": [
        {
          "internalType": "uint256",
          "name": "_tokenId",
          "type": "uint256"
        }
      ],
      "name": "buyToken",
      "outputs": [],
      "stateMutability": "payable",
      "type": "function"
    },
    {
      "inputs": [],
      "name": "getAllUnsoldTokens",
      "outputs": [
        {
          "components": [
            {
              "internalType": "uint256",
              "name": "tokenId",
              "type": "uint256"
            },
            {
              "internalType": "address payable",
              "name": "seller",
              "type": "address"
            },
            {
              "internalType": "uint256",
              "name": "price",
              "type": "uint256"
            }
          ],
          "internalType": "struct MusicNFTMarketplace.MarketItem[]",
          "name": "",
          "type": "tuple[]"
        }
      ],
      "stateMutability": "view",
      "type": "function"
    },
    {
      "inputs": [
        {
          "internalType": "uint256",
          "name": "tokenId",
          "type": "uint256"
        }
      ],
      "name": "getApproved",
      "outputs": [
        {
          "internalType": "address",
          "name": "",
          "type": "address"
        }
      ],
      "stateMutability": "view",
      "type": "function"
    },
    {
      "inputs": [],
      "name": "getMyTokens",
      "outputs": [
        {
          "components": [
            {
              "internalType": "uint256",
              "name": "tokenId",
              "type": "uint256"
            },
            {
              "internalType": "address payable",
              "name": "seller",
              "type": "address"
            },
            {
              "internalType": "uint256",
              "name": "price",
              "type": "uint256"
            }
          ],
          "internalType": "struct MusicNFTMarketplace.MarketItem[]",
          "name": "",
          "type": "tuple[]"
        }
      ],
      "stateMutability": "view",
      "type": "function"
    },
    {
      "inputs": [
        {
          "internalType": "address",
          "name": "owner",
          "type": "address"
        },
        {
          "internalType": "address",
          "name": "operator",
          "type": "address"
        }
      ],
      "name": "isApprovedForAll",
      "outputs": [
        {
          "internalType": "bool",
          "name": "",
          "type": "bool"
        }
      ],
      "stateMutability": "view",
      "type": "function"
    },
    {
      "inputs": [
        {
          "internalType": "uint256",
          "name": "",
          "type": "uint256"
        }
      ],
      "name": "marketItems",
      "outputs": [
        {
          "internalType": "uint256",
          "name": "tokenId",
          "type": "uint256"
        },
        {
          "internalType": "address payable",
          "name": "seller",
          "type": "address"
        },
        {
          "internalType": "uint256",
          "name": "price",
          "type": "uint256"
        }
      ],
      "stateMutability": "view",
      "type": "function"
    },
    {
      "inputs": [],
      "name": "name",
      "outputs": [
        {
          "internalType": "string",
          "name": "",
          "type": "string"
        }
      ],
      "stateMutability": "view",
      "type": "function"
    },
    {
      "inputs": [],
      "name": "owner",
      "outputs": [
        {
          "internalType": "address",
          "name": "",
          "type": "address"
        }
      ],
      "stateMutability": "view",
      "type": "function"
    },
    {
      "inputs": [
        {
          "internalType": "uint256",
          "name": "tokenId",
          "type": "uint256"
        }
      ],
      "name": "ownerOf",
      "outputs": [
        {
          "internalType": "address",
          "name": "",
          "type": "address"
        }
      ],
      "stateMutability": "view",
      "type": "function"
    },
    {
      "inputs": [],
      "name": "renounceOwnership",
      "outputs": [],
      "stateMutability": "nonpayable",
      "type": "function"
    },
    {
      "inputs": [
        {
          "internalType": "uint256",
          "name": "_tokenId",
          "type": "uint256"
        },
        {
          "internalType": "uint256",
          "name": "_price",
          "type": "uint256"
        }
      ],
      "name": "resellToken",
      "outputs": [],
      "stateMutability": "payable",
      "type": "function"
    },
    {
      "inputs": [],
      "name": "royaltyFee",
      "outputs": [
        {
          "internalType": "uint256",
          "name": "",
          "type": "uint256"
        }
      ],
      "stateMutability": "view",
      "type": "function"
    },
    {
      "inputs": [
        {
          "internalType": "address",
          "name": "from",
          "type": "address"
        },
        {
          "internalType": "address",
          "name": "to",
          "type": "address"
        },
        {
          "internalType": "uint256",
          "name": "tokenId",
          "type": "uint256"
        }
      ],
      "name": "safeTransferFrom",
      "outputs": [],
      "stateMutability": "nonpayable",
      "type": "function"
    },
    {
      "inputs": [
        {
          "internalType": "address",
          "name": "from",
          "type": "address"
        },
        {
          "internalType": "address",
          "name": "to",
          "type": "address"
        },
        {
          "internalType": "uint256",
          "name": "tokenId",
          "type": "uint256"
        },
        {
          "internalType": "bytes",
          "name": "data",
          "type": "bytes"
        }
      ],
      "name": "safeTransferFrom",
      "outputs": [],
      "stateMutability": "nonpayable",
      "type": "function"
    },
    {
      "inputs": [
        {
          "internalType": "address",
          "name": "operator",
          "type": "address"
        },
        {
          "internalType": "bool",
          "name": "approved",
          "type": "bool"
        }
      ],
      "name": "setApprovalForAll",
      "outputs": [],
      "stateMutability": "nonpayable",
      "type": "function"
    },
    {
      "inputs": [
        {
          "internalType": "bytes4",
          "name": "interfaceId",
          "type": "bytes4"
        }
      ],
      "name": "supportsInterface",
      "outputs": [
        {
          "internalType": "bool",
          "name": "",
          "type": "bool"
        }
      ],
      "stateMutability": "view",
      "type": "function"
    },
    {
      "inputs": [],
      "name": "symbol",
      "outputs": [
        {
          "internalType": "string",
          "name": "",
          "type": "string"
        }
      ],
      "stateMutability": "view",
      "type": "function"
    },
    {
      "inputs": [
        {
          "internalType": "uint256",
          "name": "tokenId",
          "type": "uint256"
        }
      ],
      "name": "tokenURI",
      "outputs": [
        {
          "internalType": "string",
          "name": "",
          "type": "string"
        }
      ],
      "stateMutability": "view",
      "type": "function"
    },
    {
      "inputs": [
        {
          "internalType": "address",
          "name": "from",
          "type": "address"
        },
        {
          "internalType": "address",
          "name": "to",
          "type": "address"
        },
        {
          "internalType": "uint256",
          "name": "tokenId",
          "type": "uint256"
        }
      ],
      "name": "transferFrom",
      "outputs": [],
      "stateMutability": "nonpayable",
      "type": "function"
    },
    {
      "inputs": [
        {
          "internalType": "address",
          "name": "newOwner",
          "type": "address"
        }
      ],
      "name": "transferOwnership",
      "outputs": [],
      "stateMutability": "nonpayable",
      "type": "function"
    },
    {
      "inputs": [
        {
          "internalType": "uint256",
          "name": "_royaltyFee",
          "type": "uint256"
        }
      ],
      "name": "updateRoyaltyFee",
      "outputs": [],
      "stateMutability": "nonpayable",
      "type": "function"
    }
  ],
  "bytecode": "0x60806040526040518060800160405280605981526020016200482260599139600790816200002e919062000ab7565b506040518060400160405280600581526020017f2e6a736f6e0000000000000000000000000000000000000000000000000000008152506008908162000075919062000ab7565b506040516200487b3803806200487b83398181016040528101906200009b919062000d8e565b6040518060400160405280600681526020017f44417070466900000000000000000000000000000000000000000000000000008152506040518060400160405280600481526020017f4441505000000000000000000000000000000000000000000000000000000000815250816000908162000118919062000ab7565b5080600190816200012a919062000ab7565b5050506200014d620001416200037060201b60201c565b6200037860201b60201c565b348382516200015d919062000e38565b1115620001a1576040517f08c379a0000000000000000000000000000000000000000000000000000000008152600401620001989062000f30565b60405180910390fd5b82600a8190555081600960006101000a81548173ffffffffffffffffffffffffffffffffffffffff021916908373ffffffffffffffffffffffffffffffffffffffff16021790555060005b81518160ff16101562000366576000828260ff168151811062000214576200021362000f52565b5b6020026020010151116200025f576040517f08c379a0000000000000000000000000000000000000000000000000000000008152600401620002569062000fd1565b60405180910390fd5b62000274308260ff166200043e60201b60201c565b600b60405180606001604052808360ff1681526020013373ffffffffffffffffffffffffffffffffffffffff168152602001848460ff1681518110620002bf57620002be62000f52565b5b602002602001015181525090806001815401808255809150506001900390600052602060002090600302016000909190919091506000820151816000015560208201518160010160006101000a81548173ffffffffffffffffffffffffffffffffffffffff021916908373ffffffffffffffffffffffffffffffffffffffff16021790555060408201518160020155505080806200035d9062001000565b915050620001ec565b5050505062001188565b600033905090565b6000600660009054906101000a900473ffffffffffffffffffffffffffffffffffffffff16905081600660006101000a81548173ffffffffffffffffffffffffffffffffffffffff021916908373ffffffffffffffffffffffffffffffffffffffff1602179055508173ffffffffffffffffffffffffffffffffffffffff168173ffffffffffffffffffffffffffffffffffffffff167f8be0079c531659141344cd1fd0a4f28419497f9722a3daafe3b4186f6b6457e060405160405180910390a35050565b600073ffffffffffffffffffffffffffffffffffffffff168273ffffffffffffffffffffffffffffffffffffffff1603620004b0576040517f08c379a0000000000000000000000000000000000000000000000000000000008152600401620004a7906200107e565b60405180910390fd5b620004c1816200068460201b60201c565b1562000504576040517f08c379a0000000000000000000000000000000000000000000000000000000008152600401620004fb90620010f0565b60405180910390fd5b6200051a600083836001620006cd60201b60201c565b6200052b816200068460201b60201c565b156200056e576040517f08c379a00000000000000000000000000000000000000000000000000000000081526004016200056590620010f0565b60405180910390fd5b6001600360008473ffffffffffffffffffffffffffffffffffffffff1673ffffffffffffffffffffffffffffffffffffffff16815260200190815260200160002060008282540192505081905550816002600083815260200190815260200160002060006101000a81548173ffffffffffffffffffffffffffffffffffffffff021916908373ffffffffffffffffffffffffffffffffffffffff160217905550808273ffffffffffffffffffffffffffffffffffffffff16600073ffffffffffffffffffffffffffffffffffffffff167fddf252ad1be2c89b69c2b068fc378daa952ba7f163c4a11628f55a4df523b3ef60405160405180910390a462000680600083836001620007fa60201b60201c565b5050565b60008073ffffffffffffffffffffffffffffffffffffffff16620006ae836200080060201b60201c565b73ffffffffffffffffffffffffffffffffffffffff1614159050919050565b6001811115620007f457600073ffffffffffffffffffffffffffffffffffffffff168473ffffffffffffffffffffffffffffffffffffffff1614620007655780600360008673ffffffffffffffffffffffffffffffffffffffff1673ffffffffffffffffffffffffffffffffffffffff16815260200190815260200160002060008282546200075d919062001112565b925050819055505b600073ffffffffffffffffffffffffffffffffffffffff168373ffffffffffffffffffffffffffffffffffffffff1614620007f35780600360008573ffffffffffffffffffffffffffffffffffffffff1673ffffffffffffffffffffffffffffffffffffffff1681526020019081526020016000206000828254620007eb91906200114d565b925050819055505b5b50505050565b50505050565b60006002600083815260200190815260200160002060009054906101000a900473ffffffffffffffffffffffffffffffffffffffff169050919050565b600081519050919050565b7f4e487b7100000000000000000000000000000000000000000000000000000000600052604160045260246000fd5b7f4e487b7100000000000000000000000000000000000000000000000000000000600052602260045260246000fd5b60006002820490506001821680620008bf57607f821691505b602082108103620008d557620008d462000877565b5b50919050565b60008190508160005260206000209050919050565b60006020601f8301049050919050565b600082821b905092915050565b6000600883026200093f7fffffffffffffffffffffffffffffffffffffffffffffffffffffffffffffffff8262000900565b6200094b868362000900565b95508019841693508086168417925050509392505050565b6000819050919050565b6000819050919050565b600062000998620009926200098c8462000963565b6200096d565b62000963565b9050919050565b6000819050919050565b620009b48362000977565b620009cc620009c3826200099f565b8484546200090d565b825550505050565b600090565b620009e3620009d4565b620009f0818484620009a9565b505050565b5b8181101562000a185762000a0c600082620009d9565b600181019050620009f6565b5050565b601f82111562000a675762000a3181620008db565b62000a3c84620008f0565b8101602085101562000a4c578190505b62000a6462000a5b85620008f0565b830182620009f5565b50505b505050565b600082821c905092915050565b600062000a8c6000198460080262000a6c565b1980831691505092915050565b600062000aa7838362000a79565b9150826002028217905092915050565b62000ac2826200083d565b67ffffffffffffffff81111562000ade5762000add62000848565b5b62000aea8254620008a6565b62000af782828562000a1c565b600060209050601f83116001811462000b2f576000841562000b1a578287015190505b62000b26858262000a99565b86555062000b96565b601f19841662000b3f86620008db565b60005b8281101562000b695784890151825560018201915060208501945060208101905062000b42565b8683101562000b89578489015162000b85601f89168262000a79565b8355505b6001600288020188555050505b505050505050565b6000604051905090565b600080fd5b600080fd5b62000bbd8162000963565b811462000bc957600080fd5b50565b60008151905062000bdd8162000bb2565b92915050565b600073ffffffffffffffffffffffffffffffffffffffff82169050919050565b600062000c108262000be3565b9050919050565b62000c228162000c03565b811462000c2e57600080fd5b50565b60008151905062000c428162000c17565b92915050565b600080fd5b6000601f19601f8301169050919050565b62000c698262000c4d565b810181811067ffffffffffffffff8211171562000c8b5762000c8a62000848565b5b80604052505050565b600062000ca062000b9e565b905062000cae828262000c5e565b919050565b600067ffffffffffffffff82111562000cd15762000cd062000848565b5b602082029050602081019050919050565b600080fd5b600062000cfe62000cf88462000cb3565b62000c94565b9050808382526020820190506020840283018581111562000d245762000d2362000ce2565b5b835b8181101562000d51578062000d3c888262000bcc565b84526020840193505060208101905062000d26565b5050509392505050565b600082601f83011262000d735762000d7262000c48565b5b815162000d8584826020860162000ce7565b91505092915050565b60008060006060848603121562000daa5762000da962000ba8565b5b600062000dba8682870162000bcc565b935050602062000dcd8682870162000c31565b925050604084015167ffffffffffffffff81111562000df15762000df062000bad565b5b62000dff8682870162000d5b565b9150509250925092565b7f4e487b7100000000000000000000000000000000000000000000000000000000600052601160045260246000fd5b600062000e458262000963565b915062000e528362000963565b925082820262000e628162000963565b9150828204841483151762000e7c5762000e7b62000e09565b5b5092915050565b600082825260208201905092915050565b7f4465706c6f796572206d7573742070617920726f79616c74792066656520666f60008201527f72206561636820746f6b656e206c6973746564206f6e20746865206d61726b6560208201527f74706c6163650000000000000000000000000000000000000000000000000000604082015250565b600062000f1860468362000e83565b915062000f258262000e94565b606082019050919050565b6000602082019050818103600083015262000f4b8162000f09565b9050919050565b7f4e487b7100000000000000000000000000000000000000000000000000000000600052603260045260246000fd5b7f5072696365206d7573742062652067726561746572207468616e203000000000600082015250565b600062000fb9601c8362000e83565b915062000fc68262000f81565b602082019050919050565b6000602082019050818103600083015262000fec8162000faa565b9050919050565b600060ff82169050919050565b60006200100d8262000ff3565b915060ff820362001023576200102262000e09565b5b600182019050919050565b7f4552433732313a206d696e7420746f20746865207a65726f2061646472657373600082015250565b60006200106660208362000e83565b915062001073826200102e565b602082019050919050565b60006020820190508181036000830152620010998162001057565b9050919050565b7f4552433732313a20746f6b656e20616c7265616479206d696e74656400000000600082015250565b6000620010d8601c8362000e83565b9150620010e582620010a0565b602082019050919050565b600060208201905081810360008301526200110b81620010c9565b9050919050565b60006200111f8262000963565b91506200112c8362000963565b925082820390508181111562001147576200114662000e09565b5b92915050565b60006200115a8262000963565b9150620011678362000963565b925082820190508082111562001182576200118162000e09565b5b92915050565b61368a80620011986000396000f3fe6080604052600436106101815760003560e01c806370a08231116100d1578063b88d4fde1161008a578063c87b56dd11610064578063c87b56dd14610565578063e219fc75146105a2578063e985e9c5146105be578063f2fde38b146105fb57610181565b8063b88d4fde146104e6578063b8997a971461050f578063c66828621461053a57610181565b806370a08231146103e8578063715018a614610425578063767dd0761461043c5780638da5cb5b1461046757806395d89b4114610492578063a22cb465146104bd57610181565b806342842e0e1161013e57806351f28e141161011857806351f28e14146103165780635b3b136a146103555780636352211e146103805780636c0360eb146103bd57610181565b806342842e0e1461029957806343bc1612146102c25780634e83be47146102ed57610181565b806301ffc9a71461018657806306fdde03146101c3578063081812fc146101ee578063095ea7b31461022b57806323b872dd146102545780632d296bf11461027d575b600080fd5b34801561019257600080fd5b506101ad60048036038101906101a891906124f6565b610624565b6040516101ba919061253e565b60405180910390f35b3480156101cf57600080fd5b506101d8610706565b6040516101e591906125e9565b60405180910390f35b3480156101fa57600080fd5b5061021560048036038101906102109190612641565b610798565b60405161022291906126af565b60405180910390f35b34801561023757600080fd5b50610252600480360381019061024d91906126f6565b6107de565b005b34801561026057600080fd5b5061027b60048036038101906102769190612736565b6108f5565b005b61029760048036038101906102929190612641565b610955565b005b3480156102a557600080fd5b506102c060048036038101906102bb9190612736565b610b83565b005b3480156102ce57600080fd5b506102d7610ba3565b6040516102e491906126af565b60405180910390f35b3480156102f957600080fd5b50610314600480360381019061030f9190612641565b610bc9565b005b34801561032257600080fd5b5061033d60048036038101906103389190612641565b610bdb565b60405161034c939291906127b9565b60405180910390f35b34801561036157600080fd5b5061036a610c35565b60405161037791906128ff565b60405180910390f35b34801561038c57600080fd5b506103a760048036038101906103a29190612641565b610dcd565b6040516103b491906126af565b60405180910390f35b3480156103c957600080fd5b506103d2610e53565b6040516103df91906125e9565b60405180910390f35b3480156103f457600080fd5b5061040f600480360381019061040a9190612921565b610ee1565b60405161041c919061294e565b60405180910390f35b34801561043157600080fd5b5061043a610f98565b005b34801561044857600080fd5b50610451610fac565b60405161045e91906128ff565b60405180910390f35b34801561047357600080fd5b5061047c611182565b60405161048991906126af565b60405180910390f35b34801561049e57600080fd5b506104a76111ac565b6040516104b491906125e9565b60405180910390f35b3480156104c957600080fd5b506104e460048036038101906104df9190612995565b61123e565b005b3480156104f257600080fd5b5061050d60048036038101906105089190612b0a565b611254565b005b34801561051b57600080fd5b506105246112b6565b604051610531919061294e565b60405180910390f35b34801561054657600080fd5b5061054f6112bc565b60405161055c91906125e9565b60405180910390f35b34801561057157600080fd5b5061058c60048036038101906105879190612641565b61134a565b60405161059991906125e9565b60405180910390f35b6105bc60048036038101906105b79190612b8d565b6113b2565b005b3480156105ca57600080fd5b506105e560048036038101906105e09190612bcd565b611525565b6040516105f2919061253e565b60405180910390f35b34801561060757600080fd5b50610622600480360381019061061d9190612921565b6115b9565b005b60007f80ac58cd000000000000000000000000000000000000000000000000000000007bffffffffffffffffffffffffffffffffffffffffffffffffffffffff1916827bffffffffffffffffffffffffffffffffffffffffffffffffffffffff191614806106ef57507f5b5e139f000000000000000000000000000000000000000000000000000000007bffffffffffffffffffffffffffffffffffffffffffffffffffffffff1916827bffffffffffffffffffffffffffffffffffffffffffffffffffffffff1916145b806106ff57506106fe8261163c565b5b9050919050565b60606000805461071590612c3c565b80601f016020809104026020016040519081016040528092919081815260200182805461074190612c3c565b801561078e5780601f106107635761010080835404028352916020019161078e565b820191906000526020600020905b81548152906001019060200180831161077157829003601f168201915b5050505050905090565b60006107a3826116a6565b6004600083815260200190815260200160002060009054906101000a900473ffffffffffffffffffffffffffffffffffffffff169050919050565b60006107e982610dcd565b90508073ffffffffffffffffffffffffffffffffffffffff168373ffffffffffffffffffffffffffffffffffffffff1603610859576040517f08c379a000000000000000000000000000000000000000000000000000000000815260040161085090612cdf565b60405180910390fd5b8073ffffffffffffffffffffffffffffffffffffffff166108786116f1565b73ffffffffffffffffffffffffffffffffffffffff1614806108a757506108a6816108a16116f1565b611525565b5b6108e6576040517f08c379a00000000000000000000000000000000000000000000000000000000081526004016108dd90612d71565b60405180910390fd5b6108f083836116f9565b505050565b6109066109006116f1565b826117b2565b610945576040517f08c379a000000000000000000000000000000000000000000000000000000000815260040161093c90612e03565b60405180910390fd5b610950838383611847565b505050565b6000600b828154811061096b5761096a612e23565b5b90600052602060002090600302016002015490506000600b838154811061099557610994612e23565b5b906000526020600020906003020160010160009054906101000a900473ffffffffffffffffffffffffffffffffffffffff169050813414610a0b576040517f08c379a0000000000000000000000000000000000000000000000000000000008152600401610a0290612ec4565b60405180910390fd5b6000600b8481548110610a2157610a20612e23565b5b906000526020600020906003020160010160006101000a81548173ffffffffffffffffffffffffffffffffffffffff021916908373ffffffffffffffffffffffffffffffffffffffff160217905550610a7b303385611847565b600960009054906101000a900473ffffffffffffffffffffffffffffffffffffffff1673ffffffffffffffffffffffffffffffffffffffff166108fc600a549081150290604051600060405180830381858888f19350505050158015610ae5573d6000803e3d6000fd5b508073ffffffffffffffffffffffffffffffffffffffff166108fc349081150290604051600060405180830381858888f19350505050158015610b2c573d6000803e3d6000fd5b508073ffffffffffffffffffffffffffffffffffffffff16837fd356b8423ef89ccba8e4f1dbeccc60b41825fd97d432f2e6a6dbd11ae6ecec113385604051610b76929190612ee4565b60405180910390a3505050565b610b9e83838360405180602001604052806000815250611254565b505050565b600960009054906101000a900473ffffffffffffffffffffffffffffffffffffffff1681565b610bd1611b40565b80600a8190555050565b600b8181548110610beb57600080fd5b90600052602060002090600302016000915090508060000154908060010160009054906101000a900473ffffffffffffffffffffffffffffffffffffffff16908060020154905083565b60606000610c4233610ee1565b905060008167ffffffffffffffff811115610c6057610c5f6129df565b5b604051908082528060200260200182016040528015610c9957816020015b610c86612453565b815260200190600190039081610c7e5790505b509050600080600090505b600b80549050811015610dc3573373ffffffffffffffffffffffffffffffffffffffff16610cd182610dcd565b73ffffffffffffffffffffffffffffffffffffffff1603610db057600b8181548110610d0057610cff612e23565b5b9060005260206000209060030201604051806060016040529081600082015481526020016001820160009054906101000a900473ffffffffffffffffffffffffffffffffffffffff1673ffffffffffffffffffffffffffffffffffffffff1673ffffffffffffffffffffffffffffffffffffffff168152602001600282015481525050838381518110610d9657610d95612e23565b5b60200260200101819052508180610dac90612f3c565b9250505b8080610dbb90612f3c565b915050610ca4565b5081935050505090565b600080610dd983611bbe565b9050600073ffffffffffffffffffffffffffffffffffffffff168173ffffffffffffffffffffffffffffffffffffffff1603610e4a576040517f08c379a0000000000000000000000000000000000000000000000000000000008152600401610e4190612fd0565b60405180910390fd5b80915050919050565b60078054610e6090612c3c565b80601f0160208091040260200160405190810160405280929190818152602001828054610e8c90612c3c565b8015610ed95780601f10610eae57610100808354040283529160200191610ed9565b820191906000526020600020905b815481529060010190602001808311610ebc57829003601f168201915b505050505081565b60008073ffffffffffffffffffffffffffffffffffffffff168273ffffffffffffffffffffffffffffffffffffffff1603610f51576040517f08c379a0000000000000000000000000000000000000000000000000000000008152600401610f4890613062565b60405180910390fd5b600360008373ffffffffffffffffffffffffffffffffffffffff1673ffffffffffffffffffffffffffffffffffffffff168152602001908152602001600020549050919050565b610fa0611b40565b610faa6000611bfb565b565b60606000610fb930610ee1565b905060008167ffffffffffffffff811115610fd757610fd66129df565b5b60405190808252806020026020018201604052801561101057816020015b610ffd612453565b815260200190600190039081610ff55790505b509050600080600090505b600b8054905081101561117857600073ffffffffffffffffffffffffffffffffffffffff16600b828154811061105457611053612e23565b5b906000526020600020906003020160010160009054906101000a900473ffffffffffffffffffffffffffffffffffffffff1673ffffffffffffffffffffffffffffffffffffffff161461116557600b81815481106110b5576110b4612e23565b5b9060005260206000209060030201604051806060016040529081600082015481526020016001820160009054906101000a900473ffffffffffffffffffffffffffffffffffffffff1673ffffffffffffffffffffffffffffffffffffffff1673ffffffffffffffffffffffffffffffffffffffff16815260200160028201548152505083838151811061114b5761114a612e23565b5b6020026020010181905250818061116190612f3c565b9250505b808061117090612f3c565b91505061101b565b5081935050505090565b6000600660009054906101000a900473ffffffffffffffffffffffffffffffffffffffff16905090565b6060600180546111bb90612c3c565b80601f01602080910402602001604051908101604052809291908181526020018280546111e790612c3c565b80156112345780601f1061120957610100808354040283529160200191611234565b820191906000526020600020905b81548152906001019060200180831161121757829003601f168201915b5050505050905090565b6112506112496116f1565b8383611cc1565b5050565b61126561125f6116f1565b836117b2565b6112a4576040517f08c379a000000000000000000000000000000000000000000000000000000000815260040161129b90612e03565b60405180910390fd5b6112b084848484611e2d565b50505050565b600a5481565b600880546112c990612c3c565b80601f01602080910402602001604051908101604052809291908181526020018280546112f590612c3c565b80156113425780601f1061131757610100808354040283529160200191611342565b820191906000526020600020905b81548152906001019060200180831161132557829003601f168201915b505050505081565b6060611355826116a6565b600061135f611e89565b9050600081511161137f57604051806020016040528060008152506113aa565b8061138984611f1b565b60405160200161139a9291906130be565b6040516020818303038152906040525b915050919050565b600a5434146113f6576040517f08c379a00000000000000000000000000000000000000000000000000000000081526004016113ed9061312e565b60405180910390fd5b60008111611439576040517f08c379a00000000000000000000000000000000000000000000000000000000081526004016114309061319a565b60405180910390fd5b80600b838154811061144e5761144d612e23565b5b90600052602060002090600302016002018190555033600b838154811061147857611477612e23565b5b906000526020600020906003020160010160006101000a81548173ffffffffffffffffffffffffffffffffffffffff021916908373ffffffffffffffffffffffffffffffffffffffff1602179055506114d2333084611847565b3373ffffffffffffffffffffffffffffffffffffffff16827fb2ba12d2566848b13548a3741edb565b69d3cbce7796959cd67431610207eb1383604051611519919061294e565b60405180910390a35050565b6000600560008473ffffffffffffffffffffffffffffffffffffffff1673ffffffffffffffffffffffffffffffffffffffff16815260200190815260200160002060008373ffffffffffffffffffffffffffffffffffffffff1673ffffffffffffffffffffffffffffffffffffffff16815260200190815260200160002060009054906101000a900460ff16905092915050565b6115c1611b40565b600073ffffffffffffffffffffffffffffffffffffffff168173ffffffffffffffffffffffffffffffffffffffff1603611630576040517f08c379a00000000000000000000000000000000000000000000000000000000081526004016116279061322c565b60405180910390fd5b61163981611bfb565b50565b60007f01ffc9a7000000000000000000000000000000000000000000000000000000007bffffffffffffffffffffffffffffffffffffffffffffffffffffffff1916827bffffffffffffffffffffffffffffffffffffffffffffffffffffffff1916149050919050565b6116af81611fe9565b6116ee576040517f08c379a00000000000000000000000000000000000000000000000000000000081526004016116e590612fd0565b60405180910390fd5b50565b600033905090565b816004600083815260200190815260200160002060006101000a81548173ffffffffffffffffffffffffffffffffffffffff021916908373ffffffffffffffffffffffffffffffffffffffff160217905550808273ffffffffffffffffffffffffffffffffffffffff1661176c83610dcd565b73ffffffffffffffffffffffffffffffffffffffff167f8c5be1e5ebec7d5bd14f71427d1e84f3dd0314c0f7b2291e5b200ac8c7c3b92560405160405180910390a45050565b6000806117be83610dcd565b90508073ffffffffffffffffffffffffffffffffffffffff168473ffffffffffffffffffffffffffffffffffffffff16148061180057506117ff8185611525565b5b8061183e57508373ffffffffffffffffffffffffffffffffffffffff1661182684610798565b73ffffffffffffffffffffffffffffffffffffffff16145b91505092915050565b8273ffffffffffffffffffffffffffffffffffffffff1661186782610dcd565b73ffffffffffffffffffffffffffffffffffffffff16146118bd576040517f08c379a00000000000000000000000000000000000000000000000000000000081526004016118b4906132be565b60405180910390fd5b600073ffffffffffffffffffffffffffffffffffffffff168273ffffffffffffffffffffffffffffffffffffffff160361192c576040517f08c379a000000000000000000000000000000000000000000000000000000000815260040161192390613350565b60405180910390fd5b611939838383600161202a565b8273ffffffffffffffffffffffffffffffffffffffff1661195982610dcd565b73ffffffffffffffffffffffffffffffffffffffff16146119af576040517f08c379a00000000000000000000000000000000000000000000000000000000081526004016119a6906132be565b60405180910390fd5b6004600082815260200190815260200160002060006101000a81549073ffffffffffffffffffffffffffffffffffffffff02191690556001600360008573ffffffffffffffffffffffffffffffffffffffff1673ffffffffffffffffffffffffffffffffffffffff168152602001908152602001600020600082825403925050819055506001600360008473ffffffffffffffffffffffffffffffffffffffff1673ffffffffffffffffffffffffffffffffffffffff16815260200190815260200160002060008282540192505081905550816002600083815260200190815260200160002060006101000a81548173ffffffffffffffffffffffffffffffffffffffff021916908373ffffffffffffffffffffffffffffffffffffffff160217905550808273ffffffffffffffffffffffffffffffffffffffff168473ffffffffffffffffffffffffffffffffffffffff167fddf252ad1be2c89b69c2b068fc378daa952ba7f163c4a11628f55a4df523b3ef60405160405180910390a4611b3b8383836001612150565b505050565b611b486116f1565b73ffffffffffffffffffffffffffffffffffffffff16611b66611182565b73ffffffffffffffffffffffffffffffffffffffff1614611bbc576040517f08c379a0000000000000000000000000000000000000000000000000000000008152600401611bb3906133bc565b60405180910390fd5b565b60006002600083815260200190815260200160002060009054906101000a900473ffffffffffffffffffffffffffffffffffffffff169050919050565b6000600660009054906101000a900473ffffffffffffffffffffffffffffffffffffffff16905081600660006101000a81548173ffffffffffffffffffffffffffffffffffffffff021916908373ffffffffffffffffffffffffffffffffffffffff1602179055508173ffffffffffffffffffffffffffffffffffffffff168173ffffffffffffffffffffffffffffffffffffffff167f8be0079c531659141344cd1fd0a4f28419497f9722a3daafe3b4186f6b6457e060405160405180910390a35050565b8173ffffffffffffffffffffffffffffffffffffffff168373ffffffffffffffffffffffffffffffffffffffff1603611d2f576040517f08c379a0000000000000000000000000000000000000000000000000000000008152600401611d2690613428565b60405180910390fd5b80600560008573ffffffffffffffffffffffffffffffffffffffff1673ffffffffffffffffffffffffffffffffffffffff16815260200190815260200160002060008473ffffffffffffffffffffffffffffffffffffffff1673ffffffffffffffffffffffffffffffffffffffff16815260200190815260200160002060006101000a81548160ff0219169083151502179055508173ffffffffffffffffffffffffffffffffffffffff168373ffffffffffffffffffffffffffffffffffffffff167f17307eab39ab6107e8899845ad3d59bd9653f200f220920489ca2b5937696c3183604051611e20919061253e565b60405180910390a3505050565b611e38848484611847565b611e4484848484612156565b611e83576040517f08c379a0000000000000000000000000000000000000000000000000000000008152600401611e7a906134ba565b60405180910390fd5b50505050565b606060078054611e9890612c3c565b80601f0160208091040260200160405190810160405280929190818152602001828054611ec490612c3c565b8015611f115780601f10611ee657610100808354040283529160200191611f11565b820191906000526020600020905b815481529060010190602001808311611ef457829003601f168201915b5050505050905090565b606060006001611f2a846122dd565b01905060008167ffffffffffffffff811115611f4957611f486129df565b5b6040519080825280601f01601f191660200182016040528015611f7b5781602001600182028036833780820191505090505b509050600082602001820190505b600115611fde578080600190039150507f3031323334353637383961626364656600000000000000000000000000000000600a86061a8153600a8581611fd257611fd16134da565b5b04945060008503611f89575b819350505050919050565b60008073ffffffffffffffffffffffffffffffffffffffff1661200b83611bbe565b73ffffffffffffffffffffffffffffffffffffffff1614159050919050565b600181111561214a57600073ffffffffffffffffffffffffffffffffffffffff168473ffffffffffffffffffffffffffffffffffffffff16146120be5780600360008673ffffffffffffffffffffffffffffffffffffffff1673ffffffffffffffffffffffffffffffffffffffff16815260200190815260200160002060008282546120b69190613509565b925050819055505b600073ffffffffffffffffffffffffffffffffffffffff168373ffffffffffffffffffffffffffffffffffffffff16146121495780600360008573ffffffffffffffffffffffffffffffffffffffff1673ffffffffffffffffffffffffffffffffffffffff1681526020019081526020016000206000828254612141919061353d565b925050819055505b5b50505050565b50505050565b60006121778473ffffffffffffffffffffffffffffffffffffffff16612430565b156122d0578373ffffffffffffffffffffffffffffffffffffffff1663150b7a026121a06116f1565b8786866040518563ffffffff1660e01b81526004016121c294939291906135c6565b6020604051808303816000875af19250505080156121fe57506040513d601f19601f820116820180604052508101906121fb9190613627565b60015b612280573d806000811461222e576040519150601f19603f3d011682016040523d82523d6000602084013e612233565b606091505b506000815103612278576040517f08c379a000000000000000000000000000000000000000000000000000000000815260040161226f906134ba565b60405180910390fd5b805181602001fd5b63150b7a0260e01b7bffffffffffffffffffffffffffffffffffffffffffffffffffffffff1916817bffffffffffffffffffffffffffffffffffffffffffffffffffffffff1916149150506122d5565b600190505b949350505050565b600080600090507a184f03e93ff9f4daa797ed6e38ed64bf6a1f010000000000000000831061233b577a184f03e93ff9f4daa797ed6e38ed64bf6a1f0100000000000000008381612331576123306134da565b5b0492506040810190505b6d04ee2d6d415b85acef81000000008310612378576d04ee2d6d415b85acef8100000000838161236e5761236d6134da565b5b0492506020810190505b662386f26fc1000083106123a757662386f26fc10000838161239d5761239c6134da565b5b0492506010810190505b6305f5e10083106123d0576305f5e10083816123c6576123c56134da565b5b0492506008810190505b61271083106123f55761271083816123eb576123ea6134da565b5b0492506004810190505b60648310612418576064838161240e5761240d6134da565b5b0492506002810190505b600a8310612427576001810190505b80915050919050565b6000808273ffffffffffffffffffffffffffffffffffffffff163b119050919050565b604051806060016040528060008152602001600073ffffffffffffffffffffffffffffffffffffffff168152602001600081525090565b6000604051905090565b600080fd5b600080fd5b60007fffffffff0000000000000000000000000000000000000000000000000000000082169050919050565b6124d38161249e565b81146124de57600080fd5b50565b6000813590506124f0816124ca565b92915050565b60006020828403121561250c5761250b612494565b5b600061251a848285016124e1565b91505092915050565b60008115159050919050565b61253881612523565b82525050565b6000602082019050612553600083018461252f565b92915050565b600081519050919050565b600082825260208201905092915050565b60005b83811015612593578082015181840152602081019050612578565b60008484015250505050565b6000601f19601f8301169050919050565b60006125bb82612559565b6125c58185612564565b93506125d5818560208601612575565b6125de8161259f565b840191505092915050565b6000602082019050818103600083015261260381846125b0565b905092915050565b6000819050919050565b61261e8161260b565b811461262957600080fd5b50565b60008135905061263b81612615565b92915050565b60006020828403121561265757612656612494565b5b60006126658482850161262c565b91505092915050565b600073ffffffffffffffffffffffffffffffffffffffff82169050919050565b60006126998261266e565b9050919050565b6126a98161268e565b82525050565b60006020820190506126c460008301846126a0565b92915050565b6126d38161268e565b81146126de57600080fd5b50565b6000813590506126f0816126ca565b92915050565b6000806040838503121561270d5761270c612494565b5b600061271b858286016126e1565b925050602061272c8582860161262c565b9150509250929050565b60008060006060848603121561274f5761274e612494565b5b600061275d868287016126e1565b935050602061276e868287016126e1565b925050604061277f8682870161262c565b9150509250925092565b6127928161260b565b82525050565b60006127a38261266e565b9050919050565b6127b381612798565b82525050565b60006060820190506127ce6000830186612789565b6127db60208301856127aa565b6127e86040830184612789565b949350505050565b600081519050919050565b600082825260208201905092915050565b6000819050602082019050919050565b6128258161260b565b82525050565b61283481612798565b82525050565b606082016000820151612850600085018261281c565b506020820151612863602085018261282b565b506040820151612876604085018261281c565b50505050565b6000612888838361283a565b60608301905092915050565b6000602082019050919050565b60006128ac826127f0565b6128b681856127fb565b93506128c18361280c565b8060005b838110156128f25781516128d9888261287c565b97506128e483612894565b9250506001810190506128c5565b5085935050505092915050565b6000602082019050818103600083015261291981846128a1565b905092915050565b60006020828403121561293757612936612494565b5b6000612945848285016126e1565b91505092915050565b60006020820190506129636000830184612789565b92915050565b61297281612523565b811461297d57600080fd5b50565b60008135905061298f81612969565b92915050565b600080604083850312156129ac576129ab612494565b5b60006129ba858286016126e1565b92505060206129cb85828601612980565b9150509250929050565b600080fd5b600080fd5b7f4e487b7100000000000000000000000000000000000000000000000000000000600052604160045260246000fd5b612a178261259f565b810181811067ffffffffffffffff82111715612a3657612a356129df565b5b80604052505050565b6000612a4961248a565b9050612a558282612a0e565b919050565b600067ffffffffffffffff821115612a7557612a746129df565b5b612a7e8261259f565b9050602081019050919050565b82818337600083830152505050565b6000612aad612aa884612a5a565b612a3f565b905082815260208101848484011115612ac957612ac86129da565b5b612ad4848285612a8b565b509392505050565b600082601f830112612af157612af06129d5565b5b8135612b01848260208601612a9a565b91505092915050565b60008060008060808587031215612b2457612b23612494565b5b6000612b32878288016126e1565b9450506020612b43878288016126e1565b9350506040612b548782880161262c565b925050606085013567ffffffffffffffff811115612b7557612b74612499565b5b612b8187828801612adc565b91505092959194509250565b60008060408385031215612ba457612ba3612494565b5b6000612bb28582860161262c565b9250506020612bc38582860161262c565b9150509250929050565b60008060408385031215612be457612be3612494565b5b6000612bf2858286016126e1565b9250506020612c03858286016126e1565b9150509250929050565b7f4e487b7100000000000000000000000000000000000000000000000000000000600052602260045260246000fd5b60006002820490506001821680612c5457607f821691505b602082108103612c6757612c66612c0d565b5b50919050565b7f4552433732313a20617070726f76616c20746f2063757272656e74206f776e6560008201527f7200000000000000000000000000000000000000000000000000000000000000602082015250565b6000612cc9602183612564565b9150612cd482612c6d565b604082019050919050565b60006020820190508181036000830152612cf881612cbc565b9050919050565b7f4552433732313a20617070726f76652063616c6c6572206973206e6f7420746f60008201527f6b656e206f776e6572206f7220617070726f76656420666f7220616c6c000000602082015250565b6000612d5b603d83612564565b9150612d6682612cff565b604082019050919050565b60006020820190508181036000830152612d8a81612d4e565b9050919050565b7f4552433732313a2063616c6c6572206973206e6f7420746f6b656e206f776e6560008201527f72206f7220617070726f76656400000000000000000000000000000000000000602082015250565b6000612ded602d83612564565b9150612df882612d91565b604082019050919050565b60006020820190508181036000830152612e1c81612de0565b9050919050565b7f4e487b7100000000000000000000000000000000000000000000000000000000600052603260045260246000fd5b7f506c656173652073656e64207468652061736b696e6720707269636520696e2060008201527f6f7264657220746f20636f6d706c657465207468652070757263686173650000602082015250565b6000612eae603e83612564565b9150612eb982612e52565b604082019050919050565b60006020820190508181036000830152612edd81612ea1565b9050919050565b6000604082019050612ef960008301856126a0565b612f066020830184612789565b9392505050565b7f4e487b7100000000000000000000000000000000000000000000000000000000600052601160045260246000fd5b6000612f478261260b565b91507fffffffffffffffffffffffffffffffffffffffffffffffffffffffffffffffff8203612f7957612f78612f0d565b5b600182019050919050565b7f4552433732313a20696e76616c696420746f6b656e2049440000000000000000600082015250565b6000612fba601883612564565b9150612fc582612f84565b602082019050919050565b60006020820190508181036000830152612fe981612fad565b9050919050565b7f4552433732313a2061646472657373207a65726f206973206e6f74206120766160008201527f6c6964206f776e65720000000000000000000000000000000000000000000000602082015250565b600061304c602983612564565b915061305782612ff0565b604082019050919050565b6000602082019050818103600083015261307b8161303f565b9050919050565b600081905092915050565b600061309882612559565b6130a28185613082565b93506130b2818560208601612575565b80840191505092915050565b60006130ca828561308d565b91506130d6828461308d565b91508190509392505050565b7f4d7573742070617920726f79616c747900000000000000000000000000000000600082015250565b6000613118601083612564565b9150613123826130e2565b602082019050919050565b600060208201905081810360008301526131478161310b565b9050919050565b7f5072696365206d7573742062652067726561746572207468616e207a65726f00600082015250565b6000613184601f83612564565b915061318f8261314e565b602082019050919050565b600060208201905081810360008301526131b381613177565b9050919050565b7f4f776e61626c653a206e6577206f776e657220697320746865207a65726f206160008201527f6464726573730000000000000000000000000000000000000000000000000000602082015250565b6000613216602683612564565b9150613221826131ba565b604082019050919050565b6000602082019050818103600083015261324581613209565b9050919050565b7f4552433732313a207472616e736665722066726f6d20696e636f72726563742060008201527f6f776e6572000000000000000000000000000000000000000000000000000000602082015250565b60006132a8602583612564565b91506132b38261324c565b604082019050919050565b600060208201905081810360008301526132d78161329b565b9050919050565b7f4552433732313a207472616e7366657220746f20746865207a65726f2061646460008201527f7265737300000000000000000000000000000000000000000000000000000000602082015250565b600061333a602483612564565b9150613345826132de565b604082019050919050565b600060208201905081810360008301526133698161332d565b9050919050565b7f4f776e61626c653a2063616c6c6572206973206e6f7420746865206f776e6572600082015250565b60006133a6602083612564565b91506133b182613370565b602082019050919050565b600060208201905081810360008301526133d581613399565b9050919050565b7f4552433732313a20617070726f766520746f2063616c6c657200000000000000600082015250565b6000613412601983612564565b915061341d826133dc565b602082019050919050565b6000602082019050818103600083015261344181613405565b9050919050565b7f4552433732313a207472616e7366657220746f206e6f6e20455243373231526560008201527f63656976657220696d706c656d656e7465720000000000000000000000000000602082015250565b60006134a4603283612564565b91506134af82613448565b604082019050919050565b600060208201905081810360008301526134d381613497565b9050919050565b7f4e487b7100000000000000000000000000000000000000000000000000000000600052601260045260246000fd5b60006135148261260b565b915061351f8361260b565b925082820390508181111561353757613536612f0d565b5b92915050565b60006135488261260b565b91506135538361260b565b925082820190508082111561356b5761356a612f0d565b5b92915050565b600081519050919050565b600082825260208201905092915050565b600061359882613571565b6135a2818561357c565b93506135b2818560208601612575565b6135bb8161259f565b840191505092915050565b60006080820190506135db60008301876126a0565b6135e860208301866126a0565b6135f56040830185612789565b8181036060830152613607818461358d565b905095945050505050565b600081519050613621816124ca565b92915050565b60006020828403121561363d5761363c612494565b5b600061364b84828501613612565b9150509291505056fea2646970667358221220775996c23bd4f0102c852ba1f05f1e8cfa5dda2b66ad91297cf168e743c1f8d364736f6c6343000811003368747470733a2f2f62616679626569626f636c703662657634733476366d746a70336f733432636569767636646a6371656f33796d767877336c6e366b6b7361656e712e697066732e6e667473746f726167652e6c696e6b2f",
  "linkReferences": {},
  "deployedLinkReferences": {}
}